:100000000C942A000C9447000C9447000C94470071
:100010000C9447000C9447000C94D21E0C9447009B
:100020000C9447000C94B51E0C9447000C944700A8
:100030000C9447000C9447000C9447000C94470024
:100040000C9447000C9447000C9447000C94470014
:100050000C94470011241FBECFE5D8E0DEBFCDBF12
:1000600011E0A0E6B0E0E8E2F4E402C005900D92F1
:10007000A238B107D9F711E0A2E8B1E001C01D92A2
:10008000AE39B107E1F70E94291F0C9412220C949B
:100090000000EF92FF920F931F937B018C0120E0F1
:1000A00030E040E05FE40E94F50388238CF0C80153
:1000B000B70120E030E040E05FE40E94C1010E940F
:1000C00085049B01AC01205030404040504806C0A0
:1000D000C801B7010E9485049B01AC01B901CA01A6
:1000E0001F910F91FF90EF900895A0E0B0E0EBE733
:1000F000F0E00C94DB21DC012B01FA019C919230A1
:1001000008F439C1EB018881823008F433C194309E
:1001100069F4843009F02FC111969C91119789815F
:10012000981709F428C1A9E7B0E025C1843009F483
:1001300021C18230A9F4923009F01DC19A01AD01AC
:1001400088E0EA010990AE01E90109929E0181501F
:10015000C1F7E201898111969C918923818308C1AD
:10016000923009F407C112962D903C901397EB0141
:100170008A819B811496AD90BD90CD90DC901797AD
:10018000EC80FD800E811F819101281B390BB90184
:1001900037FF04C066277727621B730B6032710537
:1001A0000CF061C0121613066CF537014801062EDB
:1001B00004C096948794779467940A94D2F721E0C8
:1001C00030E040E050E004C0220F331F441F551FB1
:1001D0006A95D2F721503040404050402E213F21B7
:1001E00040235123211531054105510521F021E01E
:1001F00030E040E050E079018A01E628F72808293C
:1002000019293CC0232BD1F1260E371E350146019A
:10021000062E04C096948794779467940A94D2F734
:1002200021E030E040E050E004C0220F331F441FC3
:10023000551F6A95D2F721503040404050402A2146
:100240003B214C215D21211531054105510521F04E
:1002500021E030E040E050E059016A01A628B728CB
:10026000C828D9280BC0821593052CF01C01AA249C
:10027000BB24650103C0EE24FF24870111969C91E5
:10028000D20111968C91981709F445C0992339F041
:10029000A80197012A193B094C095D0906C0A6016E
:1002A00095012E193F09400B510B57FD08C01182D3
:1002B0003382228224833583468357831DC081E0A5
:1002C00081833382228288279927DC01821B930B4A
:1002D000A40BB50B84839583A683B7830DC0220F2F
:1002E000331F441F551F24833583468357838281E0
:1002F000938101979383828324813581468157813D
:10030000DA01C9010197A109B1098F5F9F4FAF4F72
:10031000BF4328F30BC0918333822282EA0CFB1C7B
:100320000C1D1D1DE482F5820683178383E0808304
:10033000248135814681578157FF1AC0C901AA27F8
:1003400097FDA095BA2F81709070A070B0705695EF
:10035000479537952795822B932BA42BB52B848318
:100360009583A683B7838281938101969383828349
:10037000DF0101C0D201CD01CDB7DEB7E2E10C94BF
:10038000F721A0E2B0E0E7ECF1E00C94E72169830B
:100390007A838B839C832D833E834F835887E9E048
:1003A000EE2EF12CEC0EFD1ECE010196B7010E943F
:1003B00076068E010F5E1F4FCE010596B8010E9492
:1003C00076068A8991E089278A8BC701B801AE0138
:1003D000475E5F4F0E9475000E94A105A096E6E06F
:1003E0000C940322A0E2B0E0E8EFF1E00C94E721E6
:1003F00069837A838B839C832D833E834F835887C5
:10040000F9E0EF2EF12CEC0EFD1ECE010196B701A6
:100410000E9476068E010F5E1F4FCE010596B80131
:100420000E947606C701B801AE01475E5F4F0E9489
:1004300075000E94A105A096E6E00C940322A0E2BC
:10044000B0E0E5E2F2E00C94DB2169837A838B83F0
:100450009C832D833E834F835887CE010196BE0136
:10046000675F7F4F0E947606CE010596BE016F5EE4
:100470007F4F0E9476069985923088F08989823074
:10048000C8F0943019F4823051F404C0843029F457
:10049000923081F489E790E0C6C0923049F420E0C0
:1004A0009A858A89981321E02A87CE010996BBC0D4
:1004B000823049F420E09A858A89981321E02A8BBA
:1004C000CE014196B0C02D843E844F8458886D88FB
:1004D0007E888F88988CEE24FF248701AA24BB2471
:1004E000650140E050E060E070E0E0E0F0E0C10174
:1004F00081709070892BE9F0E60CF71C081D191D1E
:100500009A01AB012A0D3B1D4C1D5D1D80E090E062
:10051000A0E0B0E0E614F7040805190520F481E036
:1005200090E0A0E0B0E0BA01A901480F591F6A1F8E
:100530007B1FAA0CBB1CCC1CDD1C97FE08C081E0F5
:1005400090E0A0E0B0E0A82AB92ACA2ADB2A3196B6
:10055000E032F10549F0660C771C881C991C569412
:10056000479437942794C3CFFA85EA892B893C892D
:100570008B859C85280F391F2E5F3F4F17C0CA01FE
:1005800081709070892B61F016950795F794E79428
:1005900080E090E0A0E0B0E8E82AF92A0A2B1B2BC3
:1005A00076956795579547952F5F3F4F77FDE7CF36
:1005B0000CC0440F551F661F771F17FD4160EE0CDE
:1005C000FF1C001F111F21503040403090E05907A0
:1005D00090E0690790E4790760F32B8F3C8FDB0193
:1005E000CA018F779070A070B07080349105A1051A
:1005F000B10561F447FD0AC0E114F10401051105DC
:1006000029F0405C5F4F6F4F7F4F40781A8EFE1786
:1006100011F081E08A8F4D8F5E8F6F8F78A383E01A
:10062000898FCE0149960E94A105A096E2E10C9423
:10063000F721A8E1B0E0EFE1F3E00C94E321698356
:100640007A838B839C832D833E834F835887B9E0C5
:10065000EB2EF12CEC0EFD1ECE010196B7010E948F
:1006600076068E010F5E1F4FCE010596B8010E94DF
:1006700076062985223008F47EC03989323010F49C
:10068000B8017CC08A859A8989278A87243011F02D
:10069000223031F4231709F06EC069E770E06EC0B4
:1006A000343039F41D861E861F86188A1C861B86E8
:1006B00004C0323021F484E08987B7015FC02B8504
:1006C0003C858B899C89281B390B3C872B87ED84C3
:1006D000FE840F851889AD88BE88CF88D88CEA142F
:1006E000FB040C051D0540F4EE0CFF1C001F111F40
:1006F000215030403C872B8720E030E040E050E044
:1007000080E090E0A0E0B0E460E070E0EA14FB0478
:100710000C051D0540F0282B392B4A2B5B2BEA18C2
:10072000FB080C091D09B695A79597958795EE0CC2
:10073000FF1C001F111F6F5F7F4F6F31710531F775
:10074000DA01C9018F779070A070B0708034910584
:10075000A105B10561F427FD0AC0E114F10401050A
:10076000110529F0205C3F4F4F4F5F4F20782D87B8
:100770003E874F87588BBE01675F7F4FCB010E943A
:10078000A1056896EAE00C94FF21A8E1B0E0EBEC4B
:10079000F3E00C94E72169837A838B839C832D8318
:1007A0003E834F83588789E0E82EF12CEC0EFD1E26
:1007B000CE010196B7010E9476068E010F5E1F4F93
:1007C000CE010596B8010E9476068985823040F0F8
:1007D0008989823028F0C701B8010E94EE0601C065
:1007E0008FEF6896E6E00C940322A8E1B0E0EBEF0F
:1007F000F3E00C94E72169837A838B839C832D83B8
:100800003E834F83588789E0E82EF12CEC0EFD1EC5
:10081000CE010196B7010E9476068E010F5E1F4F32
:10082000CE010596B8010E9476068985823040F097
:100830008989823028F0C701B8010E94EE0601C004
:100840008FEF6896E6E00C940322A8E1B0E0EBE2BB
:10085000F4E00C94E72169837A838B839C832D8356
:100860003E834F83588789E0E82EF12CEC0EFD1E65
:10087000CE010196B7010E9476068E010F5E1F4FD2
:10088000CE010596B8010E9476068985823040F037
:100890008989823028F0C701B8010E94EE0601C0A4
:1008A00081E06896E6E00C940322A8E1B0E0EBE575
:1008B000F4E00C94E72169837A838B839C832D83F6
:1008C0003E834F83588789E0E82EF12CEC0EFD1E05
:1008D000CE010196B7010E9476068E010F5E1F4F72
:1008E000CE010596B8010E9476068985823040F0D7
:1008F0008989823028F0C701B8010E94EE0601C044
:1009000081E06896E6E00C940322ACE0B0E0EBE80E
:10091000F4E00C94EB2169837A838B839C83CE0172
:100920000196BE016B5F7F4F0E9476068D818230FB
:1009300061F1823050F1843021F48E81882351F1AD
:100940002EC02F81388537FD20C06E812F313105B3
:100950001CF06623F9F023C08EE190E0821B930B1C
:1009600029853A854B855C8504C056954795379512
:1009700027958A95D2F76623B1F05095409530952A
:1009800021953F4F4F4F5F4F0EC020E030E040E0D9
:1009900050E009C02FEF3FEF4FEF5FE704C020E0CA
:1009A00030E040E050E8B901CA012C96E2E00C9436
:1009B0000722A8E0B0E0EFEDF4E00C94E3217B0126
:1009C0008C01611571058105910519F482E0898317
:1009D00060C083E089838EE1C82ED12CDC82CB827B
:1009E000ED82FE820F831887C801B7010E9452056D
:1009F000FC013197F7FF3BC0222733272E1B3F0B0B
:100A000057016801022E04C0D694C794B794A794E6
:100A10000A94D2F740E050E060E070E081E090E0BE
:100A2000A0E0B0E004C0880F991FAA1FBB1F2A9541
:100A3000D2F70197A109B1098E219F21A023B123EB
:100A40000097A105B10521F041E050E060E070E0C1
:100A50004A295B296C297D294D835E836F837887C2
:100A60008EE190E08E1B9F0B9C838B8312C030978E
:100A700081F00E2E04C0EE0CFF1C001F111F0A9403
:100A8000D2F7ED82FE820F831887CE1ADF0ADC824E
:100A9000CB821A82CE0101960E94A1052896EAE037
:100AA0000C94FF21EF92FF920F931F937B018C0117
:100AB00080E0E81680E0F80681E0080780E018078B
:100AC00088F48FEFE816F1040105110531F028F0E4
:100AD00088E090E0A0E0B0E017C080E090E0A0E007
:100AE000B0E012C080E0E81680E0F80680E0080779
:100AF00081E0180728F088E190E0A0E0B0E004C0B1
:100B000080E190E0A0E0B0E020E230E040E050E0A2
:100B1000281B390B4A0B5B0B04C016950795F794FD
:100B2000E7948A95D2F7F701EF57FF4F8081281B92
:100B3000310941095109C9011F910F91FF90EF90AF
:100B40000895DF92EF92FF920F931F93FC01E480D0
:100B5000F58006811781D1808081823048F480E061
:100B600090E0A0E1B0E0E82AF92A0A2B1B2BA5C0EF
:100B7000843009F49FC0823021F4EE24FF248701E1
:100B800005C0E114F1040105110519F4E0E0F0E0FD
:100B900096C0628173819FEF623879070CF05BC069
:100BA00022E83FEF261B370B2A3131052CF020E0DD
:100BB00030E040E050E02AC0B801A701022E04C096
:100BC00076956795579547950A94D2F781E090E01E
:100BD000A0E0B0E004C0880F991FAA1FBB1F2A9590
:100BE000D2F70197A109B1098E219F21A023B1233A
:100BF0000097A105B10521F081E090E0A0E0B0E010
:100C00009A01AB01282B392B4A2B5B2BDA01C90146
:100C10008F779070A070B07080349105A105B105F8
:100C200039F427FF09C0205C3F4F4F4F5F4F04C08E
:100C3000215C3F4F4F4F5F4FE0E0F0E02030A0E0FD
:100C40003A07A0E04A07A0E45A0710F0E1E0F0E01C
:100C500079018A0127C06038710564F5FB01E1580C
:100C6000FF4FD801C7018F779070A070B0708034AB
:100C70009105A105B10539F4E7FE0DC080E490E0CF
:100C8000A0E0B0E004C08FE390E0A0E0B0E0E80EA8
:100C9000F91E0A1F1B1F17FF05C016950795F7942D
:100CA000E794319687E016950795F794E7948A952F
:100CB000D1F705C0EE24FF248701EFEFF0E06E2F9F
:100CC000679566276795902F9F77D794DD24D794F3
:100CD0008E2F8695492F462B582F5D29B701CA01C3
:100CE0001F910F91FF90EF90DF900895FC01DB01C1
:100CF000408151812281622F6F7770E0221F22276D
:100D0000221F9381892F880F822B282F30E0991F73
:100D10009927991F11969C93119721153105A9F5D3
:100D2000411551056105710511F482E037C082E873
:100D30009FEF13969C938E9312979A01AB0167E0F5
:100D4000220F331F441F551F6A95D1F783E08C9300
:100D50000DC0220F331F441F551F12968D919C9179
:100D60001397019713969C938E931297203080E0EF
:100D7000380780E0480780E4580758F314962D930D
:100D80003D934D935C93179708952F3F310579F468
:100D9000411551056105710519F484E08C9308959E
:100DA00064FF03C081E08C9312C01C9210C02F57C7
:100DB000304013963C932E93129783E08C9387E0F8
:100DC000440F551F661F771F8A95D1F770641496DC
:100DD0004D935D936D937C93179708951F93DC015A
:100DE000FB019C91923008F447C08081823008F466
:100DF00043C0943051F411961C91843099F581814F
:100E0000682F70E0611B71093FC0843021F092307F
:100E100031F48230B9F18181882389F12DC0119696
:100E20001C9111978230F1F081811817D9F4129634
:100E30002D913C911397828193818217930794F0AF
:100E400028173907BCF014968D919D910D90BC9197
:100E5000A02D2481358146815781281739074A07FB
:100E60005B0718F4112341F00AC082179307A40707
:100E7000B50740F4112319F061E070E005C06FEF91
:100E80007FEF02C060E070E0CB011F910895DF9317
:100E9000CF93CDB7DEB728970FB6F894DEBF0FBE5D
:100EA000CDBF89836A838A81282F30E038872F83DA
:100EB0008F8198858134910531F02F8138852234D6
:100EC0003105D9F173C083E064E041E00E94740B06
:100ED00083E064E041E00E949A0C82E063E041E03C
:100EE0000E94740B82E064E041E00E94740B8981EF
:100EF000282F30E03E832D838D819E8181309105A6
:100F000031F02D813E812230310561F04FC082E009
:100F100063E041E00E949A0C82E064E040E00E94BD
:100F20009A0C44C082E063E040E00E949A0C82E0A8
:100F300064E041E00E949A0C39C083E067E041E040
:100F40000E94740B83E067E041E00E949A0C82E00B
:100F500065E041E00E94740B82E066E041E00E949F
:100F6000740B8981282F30E03C832B838B819C81FB
:100F70008130910531F02B813C812230310561F0C7
:100F800015C082E065E041E00E949A0C82E066E0D4
:100F900040E00E949A0C0AC082E065E040E00E94B6
:100FA0009A0C82E066E041E00E949A0C28960FB607
:100FB000F894DEBF0FBECDBFCF91DF910895DF93D0
:100FC000CF9300D00F92CDB7DEB789838981282FC8
:100FD00030E03B832A838A819B818134910581F0B3
:100FE0002A813B8122343105A9F483E067E041E0A6
:100FF0000E94740B83E067E040E00E949A0C0AC0F4
:1010000083E064E041E00E94740B83E064E040E030
:101010000E949A0C0F900F900F90CF91DF9108953E
:10102000DF93CF93CDB7DEB728970FB6F894DEBF26
:101030000FBECDBF89836A838A81282F30E038872D
:101040002F838F8198858134910531F02F813885E8
:101050002234310589F15FC081E067E041E00E9400
:10106000740B82E061E041E00E94740B8981282FBB
:1010700030E03E832D838D819E818130910531F05A
:101080002D813E812230310561F045C081E067E06D
:1010900041E00E949A0C82E061E040E00E949A0CDC
:1010A0003AC081E067E040E00E949A0C82E061E093
:1010B00041E00E949A0C2FC081E065E041E00E946F
:1010C000740B81E066E041E00E94740B8981282F57
:1010D00030E03C832B838B819C818130910531F002
:1010E0002B813C812230310561F015C081E065E043
:1010F00041E00E949A0C81E066E040E00E949A0C78
:101100000AC081E065E040E00E949A0C81E066E060
:1011100041E00E949A0C28960FB6F894DEBF0FBEED
:10112000CDBFCF91DF910895DF93CF9300D00F9281
:10113000CDB7DEB789838981282F30E03B832A83AE
:101140008A819B818134910531F02A813B8122344F
:101150003105B1F029C081E067E041E00E94740BE5
:1011600082E061E041E00E94740B81E067E040E0D2
:101170000E949A0C82E061E040E00E949A0C14C048
:1011800081E065E041E00E94740B81E066E041E0AF
:101190000E94740B81E065E040E00E949A0C81E0BF
:1011A00066E040E00E949A0C0F900F900F90CF9154
:1011B000DF910895DF93CF9300D00F92CDB7DEB7C4
:1011C000898383E064E041E00E94740B83E064E083
:1011D00041E00E949A0C82E063E041E00E94740BBF
:1011E00082E064E041E00E94740B83E067E041E04C
:1011F0000E94740B83E067E041E00E949A0C82E059
:1012000065E041E00E94740B82E066E041E00E94EC
:10121000740B81E067E041E00E94740B82E061E0C2
:1012200041E00E94740B81E065E041E00E94740B94
:1012300081E066E041E00E94740B8981282F30E054
:101240003B832A838A819B818130910531F02A81F9
:101250003B812230310551F151C082E063E041E031
:101260000E949A0C82E064E040E00E949A0C82E0C6
:1012700065E041E00E949A0C82E066E040E00E9456
:101280009A0C81E067E041E00E949A0C82E061E004
:1012900040E00E949A0C81E065E041E00E949A0CD7
:1012A00081E066E040E00E949A0C28C082E063E0A2
:1012B00040E00E949A0C82E064E041E00E949A0CB7
:1012C00082E065E040E00E949A0C82E066E041E046
:1012D0000E949A0C81E067E040E00E949A0C82E054
:1012E00061E041E00E949A0C81E065E040E00E94EC
:1012F0009A0C81E066E041E00E949A0C0F900F90FA
:101300000F90CF91DF910895DF93CF93CDB7DEB7E4
:1013100083E067E041E00E94740B83E067E040E017
:101320000E949A0C83E064E041E00E94740B83E029
:1013300064E040E00E949A0C81E067E041E00E9496
:10134000740B82E061E041E00E94740B81E067E091
:1013500040E00E949A0C82E061E040E00E949A0C1A
:1013600081E065E041E00E94740B81E066E041E0CD
:101370000E94740B81E065E040E00E949A0C81E0DD
:1013800066E040E00E949A0CCF91DF910895DF93D0
:10139000CF93CDB7DEB72E970FB6F894DEBF0FBE52
:1013A000CDBF81E061E40E94100881E062E40E9408
:1013B000100880E090E8ABEBB4E48B879C87AD87A6
:1013C000BE876B857C858D859E8520E030E04AE771
:1013D00055E40E941F02DC01CB018F839887A98707
:1013E000BA876F81788589859A8520E030E040E86A
:1013F0005FE30E94250488232CF481E090E09E8323
:101400008D833FC06F81788589859A8520E03FEF85
:101410004FE757E40E94C50318164CF56B857C8591
:101420008D859E8520E030E040E251E40E941F025D
:10143000DC01CB01BC01CD010E944900DC01CB01E4
:101440009E838D830FC080E991E09C838B838B8189
:101450009C810197F1F79C838B838D819E810197FD
:101460009E838D838D819E81009769F714C06F8163
:10147000788589859A850E944900DC01CB019E838D
:101480008D838D819E819A83898389819A81019739
:10149000F1F79A8389830E9484092E960FB6F894F7
:1014A000DEBF0FBECDBFCF91DF910895DF93CF9305
:1014B000CDB7DEB72E970FB6F894DEBF0FBECDBF07
:1014C00081E061E40E94470781E062E40E944707EF
:1014D00080E090E0AAEFB4E48B879C87AD87BE875D
:1014E0006B857C858D859E8520E030E04AE755E45C
:1014F0000E941F02DC01CB018F839887A987BA87DE
:101500006F81788589859A8520E030E040E85FE347
:101510000E94250488232CF481E090E09E838D8333
:101520003FC06F81788589859A8520E03FEF4FE73E
:1015300057E40E94C50318164CF56B857C858D8594
:101540009E8520E030E040E251E40E941F02DC0171
:10155000CB01BC01CD010E944900DC01CB019E837F
:101560008D830FC080E991E09C838B838B819C816C
:101570000197F1F79C838B838D819E8101979E83D8
:101580008D838D819E81009769F714C06F81788566
:1015900089859A850E944900DC01CB019E838D8359
:1015A0008D819E819A83898389819A810197F1F740
:1015B0009A8389830E9484092E960FB6F894DEBF21
:1015C0000FBECDBFCF91DF910895DF93CF93CDB7FD
:1015D000DEB72E970FB6F894DEBF0FBECDBF81E009
:1015E00061E40E94470781E062E40E94470780E0CF
:1015F00090E8ABE3B5E48B879C87AD87BE876B85AE
:101600007C858D859E8520E030E04AE755E40E9488
:101610001F02DC01CB018F839887A987BA876F816E
:10162000788589859A8520E030E040E85FE30E9474
:10163000250488232CF481E090E09E838D833FC0B5
:101640006F81788589859A8520E03FEF4FE757E4E1
:101650000E94C50318164CF56B857C858D859E858B
:1016600020E030E040E251E40E941F02DC01CB01A7
:10167000BC01CD010E944900DC01CB019E838D831A
:101680000FC080E991E09C838B838B819C810197C3
:10169000F1F79C838B838D819E8101979E838D833F
:1016A0008D819E81009769F714C06F817885898547
:1016B0009A850E944900DC01CB019E838D838D8138
:1016C0009E819A83898389819A810197F1F79A8310
:1016D00089830E9484092E960FB6F894DEBF0FBE50
:1016E000CDBFCF91DF910895DF93CF93CDB7DEB714
:1016F0002D970FB6F894DEBF0FBECDBF89836A83E6
:101700004B838981843008F00CC18A81883008F0CD
:1017100008C18B81813021F08B81882309F001C1C0
:101720008981282F30E03D872C878C859D858130ED
:10173000910509F44FC02C853D85223031052CF4EC
:101740008C859D85009771F0ECC02C853D852230FD
:10175000310509F477C08C859D858330910509F4A6
:10176000A9C0DFC08B81282F30E03B872A878A857C
:101770009B85009731F02A853B8521303105B1F0FA
:10178000D0C0AAE3B0E0EAE3F0E08081482F8A818C
:10179000282F30E081E090E0022E02C0880F991FD0
:1017A0000A94E2F7809584238C93BBC0AAE3B0E04F
:1017B000EAE3F0E08081482F8A81282F30E081E041
:1017C00090E0022E02C0880F991F0A94E2F7842B42
:1017D0008C93A7C08B81282F30E039872887888594
:1017E0009985009731F02885398521303105B1F090
:1017F00098C0A7E3B0E0E7E3F0E08081482F8A815A
:10180000282F30E081E090E0022E02C0880F991F5F
:101810000A94E2F7809584238C9383C0A7E3B0E019
:10182000E7E3F0E08081482F8A81282F30E081E0D3
:1018300090E0022E02C0880F991F0A94E2F7842BD1
:101840008C936FC08B81282F30E03F832E838E8155
:101850009F81009731F02E813F8121303105B1F019
:1018600060C0A4E3B0E0E4E3F0E08081482F8A8127
:10187000282F30E081E090E0022E02C0880F991FEF
:101880000A94E2F7809584238C934BC0A4E3B0E0E4
:10189000E4E3F0E08081482F8A81282F30E081E066
:1018A00090E0022E02C0880F991F0A94E2F7842B61
:1018B0008C9337C08B81282F30E03D832C838C8123
:1018C0009D81009731F02C813D8121303105B1F0AF
:1018D00028C0A1E3B0E0E1E3F0E08081482F8A81F5
:1018E000282F30E081E090E0022E02C0880F991F7F
:1018F0000A94E2F7809584238C9313C0A1E3B0E0AF
:10190000E1E3F0E08081482F8A81282F30E081E0F8
:1019100090E0022E02C0880F991F0A94E2F7842BF0
:101920008C932D960FB6F894DEBF0FBECDBFCF912E
:10193000DF910895DF93CF93CDB7DEB72D970FB624
:10194000F894DEBF0FBECDBF89836A834B83898144
:10195000843008F00CC18A81883008F008C18B817E
:10196000813021F08B81882309F001C18981282FE2
:1019700030E03D872C878C859D858130910509F469
:101980004FC02C853D85223031052CF48C859D85FA
:10199000009771F0ECC02C853D852230310509F4AB
:1019A00077C08C859D858330910509F4A9C0DFC07F
:1019B0008B81282F30E03B872A878A859B8500977B
:1019C00031F02A853B8521303105B1F0D0C0ABE341
:1019D000B0E0EBE3F0E08081482F8A81282F30E0EF
:1019E00081E090E0022E02C0880F991F0A94E2F76E
:1019F000809584238C93BBC0ABE3B0E0EBE3F0E0D5
:101A00008081482F8A81282F30E081E090E0022EEB
:101A100002C0880F991F0A94E2F7842B8C93A7C009
:101A20008B81282F30E03987288788859985009712
:101A300031F02885398521303105B1F098C0A8E30F
:101A4000B0E0E8E3F0E08081482F8A81282F30E081
:101A500081E090E0022E02C0880F991F0A94E2F7FD
:101A6000809584238C9383C0A8E3B0E0E8E3F0E0A2
:101A70008081482F8A81282F30E081E090E0022E7B
:101A800002C0880F991F0A94E2F7842B8C936FC0D1
:101A90008B81282F30E03F832E838E819F8100979A
:101AA00031F02E813F8121303105B1F060C0A5E3D6
:101AB000B0E0E5E3F0E08081482F8A81282F30E014
:101AC00081E090E0022E02C0880F991F0A94E2F78D
:101AD000809584238C934BC0A5E3B0E0E5E3F0E070
:101AE0008081482F8A81282F30E081E090E0022E0B
:101AF00002C0880F991F0A94E2F7842B8C9337C099
:101B00008B81282F30E03D832C838C819D81009731
:101B100031F02C813D8121303105B1F028C0A2E3A4
:101B2000B0E0E2E3F0E08081482F8A81282F30E0A6
:101B300081E090E0022E02C0880F991F0A94E2F71C
:101B4000809584238C9313C0A2E3B0E0E2E3F0E03D
:101B50008081482F8A81282F30E081E090E0022E9A
:101B600002C0880F991F0A94E2F7842B8C932D965C
:101B70000FB6F894DEBF0FBECDBFCF91DF910895B1
:101B8000DF93CF9300D000D000D0CDB7DEB78983EC
:101B90006A835C834B838981843008F079C08A81B1
:101BA000883008F075C08B819C81009709F470C063
:101BB0008981282F30E03E832D834D815E81413025
:101BC000510559F18D819E818230910534F42D812A
:101BD0003E812115310569F05BC04D815E81423047
:101BE000510579F18D819E818330910509F43DC0C5
:101BF0004FC0E9E3F0E08081282F30E08A81882F10
:101C000090E0A90102C0559547958A95E2F7CA016F
:101C10008170EB81FC8180833BC0E6E3F0E0808152
:101C2000282F30E08A81882F90E0A90102C05595C5
:101C300047958A95E2F7CA018170EB81FC81808328
:101C400027C0E3E3F0E08081282F30E08A81882FED
:101C500090E0A90102C0559547958A95E2F7CA011F
:101C60008170EB81FC81808313C0E0E3F0E0808130
:101C7000282F30E08A81882F90E0A90102C0559575
:101C800047958A95E2F7CA018170EB81FC818083D8
:101C900026960FB6F894DEBF0FBECDBFCF91DF9171
:101CA0000895DF93CF9300D000D0CDB7DEB78983FE
:101CB0006A838981843008F072C08A81883008F094
:101CC0006EC08981282F30E03C832B838B819C81DF
:101CD0008130910549F12B813C81223031052CF472
:101CE0008B819C81009761F05AC02B813C8122300E
:101CF000310571F18B819C8183309105E9F14FC0F1
:101D0000ABE3B0E0EBE3F0E08081482F8A81282F3D
:101D100030E081E090E0022E02C0880F991F0A9403
:101D2000E2F784278C933BC0A8E3B0E0E8E3F0E05F
:101D30008081482F8A81282F30E081E090E0022EB8
:101D400002C0880F991F0A94E2F784278C9327C05A
:101D5000A5E3B0E0E5E3F0E08081482F8A81282FF9
:101D600030E081E090E0022E02C0880F991F0A94B3
:101D7000E2F784278C9313C0A2E3B0E0E2E3F0E043
:101D80008081482F8A81282F30E081E090E0022E68
:101D900002C0880F991F0A94E2F784278C930F9052
:101DA0000F900F900F90CF91DF910895DF93CF9315
:101DB00000D000D0CDB7DEB789836A8389818430B3
:101DC00008F072C08A81883008F06EC08981282F9F
:101DD00030E03C832B838B819C818130910549F1DC
:101DE0002B813C81223031052CF48B819C81009722
:101DF00061F05AC02B813C812230310571F18B8119
:101E00009C8183309105E9F14FC0ABE3B0E0EBE397
:101E1000F0E08081482F8A81282F30E081E090E037
:101E2000022E02C0880F991F0A94E2F7842B8C932C
:101E30003BC0A8E3B0E0E8E3F0E08081482F8A816E
:101E4000282F30E081E090E0022E02C0880F991F19
:101E50000A94E2F7842B8C9327C0A5E3B0E0E5E376
:101E6000F0E08081482F8A81282F30E081E090E0E7
:101E7000022E02C0880F991F0A94E2F7842B8C93DC
:101E800013C0A2E3B0E0E2E3F0E08081482F8A8152
:101E9000282F30E081E090E0022E02C0880F991FC9
:101EA0000A94E2F7842B8C930F900F900F900F9071
:101EB000CF91DF910895DF93CF93CDB7DEB7AFE534
:101EC000B0E0EFE5F0E0808180688C93CF91DF9106
:101ED0000895DF93CF93CDB7DEB7AFE5B0E0EFE580
:101EE000F0E080818F778C93CF91DF9108950F93ED
:101EF0001F93DF93CF93CDB7DEB7CA55D0400FB64F
:101F0000F894DEBF0FBECDBF81E062E041E00E94E9
:101F1000740B81E061E041E00E94740B81E063E0BA
:101F200041E00E94740B80E064E041E00E94740B89
:101F300080E065E041E00E94740B80E066E041E0F3
:101F40000E94740B80E067E041E00E94740BFE0188
:101F5000E95AFF4F80E090E0ACE0B2E480839183E7
:101F6000A283B3838E010D5A1F4FFE01E95AFF4F22
:101F7000608171818281938120E030E04AE755E4FD
:101F80000E941F02DC01CB01F80180839183A283B0
:101F9000B383FE01ED5AFF4F60817181828193818D
:101FA00020E030E040E85FE30E942504882344F409
:101FB000FE01EF5AFF4F81E090E09183808364C07F
:101FC000FE01ED5AFF4F608171818281938120E093
:101FD0003FEF4FE757E40E94C50318160CF043C0CB
:101FE000FE01E95AFF4F608171818281938120E077
:101FF00030E040E251E40E941F02DC01CB018E017F
:102000000F5A1F4FBC01CD010E944900DC01CB01DA
:10201000F801918380831FC0FE01E15BFF4F80E9DF
:1020200091E091838083FE01E15BFF4F808191818C
:102030000197F1F7FE01E15BFF4F91838083DE01A1
:10204000AF5ABF4FFE01EF5AFF4F80819181019738
:1020500011969C938E93FE01EF5AFF4F80819181E0
:102060000097D1F627C08E010F5A1F4FFE01ED5A7F
:10207000FF4F60817181828193810E944900DC0160
:10208000CB01F80191838083DE01A35BBF4FFE018A
:10209000EF5AFF4F808191818D939C93FE01E35B0A
:1020A000FF4F808191810197F1F7FE01E35BFF4FC4
:1020B0009183808381E061E040E00E949A0C81E09E
:1020C00062E040E00E949A0C82E00E94631581E089
:1020D00063E041E00E949A0CFE01E75BFF4F80E065
:1020E00090E0A0E8BFE380839183A283B3838E0155
:1020F0000B5B1F4FFE01E75BFF4F608171818281A7
:10210000938120E030E04AE755E40E941F02DC01A1
:10211000CB01F80180839183A283B383FE01EB5B43
:10212000FF4F608171818281938120E030E040E83F
:102130005FE30E942504882344F4FE01ED5BFF4F1A
:1021400081E090E09183808364C0FE01EB5BFF4FF0
:10215000608171818281938120E03FEF4FE757E4F6
:102160000E94C50318160CF043C0FE01E75BFF4F49
:10217000608171818281938120E030E040E251E40E
:102180000E941F02DC01CB018E010D5B1F4FBC01C1
:10219000CD010E944900DC01CB01F80191838083CD
:1021A0001FC0FE01EF5BFF4F80E991E091838083C8
:1021B000FE01EF5BFF4F808191810197F1F7FE01F6
:1021C000EF5BFF4F91838083DE01AD5BBF4FFE016C
:1021D000ED5BFF4F80819181019711969C938E93C7
:1021E000FE01ED5BFF4F808191810097D1F624C005
:1021F0008E010D5B1F4FFE01EB5BFF4F6081718114
:10220000828193810E944900DC01CB01F801918316
:102210008083FE01ED5BFF4F80819181FE01FF967F
:1022200091838083FE01FF96808191810197F1F770
:10223000FE01FF969183808381E063E040E00E948D
:102240009A0C88E20E94271380E090E0A4E3B2E4B5
:102250008BAF9CAFADAFBEAF6BAD7CAD8DAD9EAD6A
:102260002BEA3AEA4AEA50E40E941F02DC01CB0161
:102270008FAB98AFA9AFBAAF6FA978AD89AD9AAD62
:1022800020E030E040E85FE30E94250488231CF44E
:1022900081E08EAB91C06FA978AD89AD9AAD20E099
:1022A00030E04FE753E40E94C50318160CF07BC0E2
:1022B0006BAD7CAD8DAD9EAD20E030E04AE754E4DF
:1022C0000E941903DC01CB018AAB9BABACABBDAB6D
:1022D0006AA97BA98CA99DA920E030E04AE755E4D2
:1022E0000E941F02DC01CB018EA79FA7A8ABB9AB50
:1022F0006EA57FA588A999A920E030E040E85FE3BA
:102300000E94250488232CF481E090E09DA78CA7EF
:102310003FC06EA57FA588A999A920E03FEF4FE7B0
:1023200057E40E94C50318164CF56AA97BA98CA92D
:102330009DA920E030E040E251E40E941F02DC0150
:10234000CB01BC01CD010E944900DC01CB019DA75E
:102350008CA70FC080E991E09BA78AA78AA59BA5BF
:102360000197F1F79BA78AA78CA59DA501979DA72B
:102370008CA78CA59DA5009769F724C06EA57FA5A5
:1023800088A999A90E944900DC01CB019DA78CA7CF
:102390008CA59DA599A788A788A599A50197F1F770
:1023A00099A788A70FC06FA978AD89AD9AAD0E9493
:1023B0004900DC01CB018EAB8EA98FA38FA18A953A
:1023C000F1F78FA38FE00E94271380E090E0A4E351
:1023D000B2E48BA39CA3ADA3BEA36BA17CA18DA1F2
:1023E0009EA12BEA3AEA4AEA50E40E941F02DC016D
:1023F000CB018F8F98A3A9A3BAA36F8D78A189A1D0
:102400009AA120E030E040E85FE30E9425048823A1
:102410001CF481E08E8F91C06F8D78A189A19AA163
:1024200020E030E04FE753E40E94C50318160CF09B
:102430007BC06BA17CA18DA19EA120E030E04AE78A
:1024400054E40E941903DC01CB018A8F9B8FAC8F6F
:10245000BD8F6A8D7B8D8C8D9D8D20E030E04AE7AD
:1024600055E40E941F02DC01CB018E8B9F8BA88F4D
:10247000B98F6E897F89888D998D20E030E040E8A2
:102480005FE30E94250488232CF481E090E09D8B7B
:102490008C8B3FC06E897F89888D998D20E03FEFBE
:1024A0004FE757E40E94C50318164CF56A8D7B8DE3
:1024B0008C8D9D8D20E030E040E251E40E941F02AF
:1024C000DC01CB01BC01CD010E944900DC01CB0144
:1024D0009D8B8C8B0FC080E991E09B8B8A8B8A89C6
:1024E0009B890197F1F79B8B8A8B8C899D8901973A
:1024F0009D8B8C8B8C899D89009769F724C06E8990
:102500007F89888D998D0E944900DC01CB019D8BCC
:102510008C8B8C899D89998B888B88899989019767
:10252000F1F7998B888B0FC06F8D78A189A19AA143
:102530000E944900DC01CB018E8F8E8D8F878F85A5
:102540008A95F1F78F8781E00E94271380E090E061
:10255000A0E0B0E48B879C87AD87BE876B857C85C8
:102560008D859E8520E030E04AE755E40E941F02F9
:10257000DC01CB018F839887A987BA876F81788523
:1025800089859A8520E030E040E85FE30E942504D9
:1025900088232CF481E090E09E838D833FC06F817F
:1025A000788589859A8520E03FEF4FE757E40E94C0
:1025B000C50318164CF56B857C858D859E8520E0BE
:1025C00030E040E251E40E941F02DC01CB01BC017B
:1025D000CD010E944900DC01CB019E838D830FC099
:1025E00080E991E09C838B838B819C810197F1F73B
:1025F0009C838B838D819E8101979E838D838D81AA
:102600009E81009769F714C06F81788589859A85C6
:102610000E944900DC01CB019E838D838D819E81C8
:102620009A83898389819A810197F1F79A838983B3
:1026300086E00E942713C65ADF4F0FB6F894DEBF1C
:102640000FBECDBFCF91DF911F910F910895DF9302
:10265000CF93CDB7DEB76D970FB6F894DEBF0FBE40
:10266000CDBF8D8F81E061E040E00E949A0C81E057
:1026700062E040E00E949A0C8D8D82958F700E94DE
:10268000631581E063E041E00E949A0C80E090E0F5
:10269000A0E8BFE3898F9A8FAB8FBC8F698D7A8D4D
:1026A0008B8D9C8D20E030E04AE755E40E941F02AC
:1026B000DC01CB018D8B9E8BAF8BB88F6D897E89B2
:1026C0008F89988D20E030E040E85FE30E94250488
:1026D00088232CF481E090E09C8B8B8B3FC06D892C
:1026E0007E898F89988D20E03FEF4FE757E40E9465
:1026F000C50318164CF5698D7A8D8B8D9C8D20E065
:1027000030E040E251E40E941F02DC01CB01BC0139
:10271000CD010E944900DC01CB019C8B8B8B0FC04B
:1027200080E991E09A8B898B89899A890197F1F7E1
:102730009A8B898B8B899C8901979C8B8B8B8B893E
:102740009C89009769F714C06D897E898F89988D5F
:102750000E944900DC01CB019C8B8B8B8B899C896F
:10276000988B8F878F8598890197F1F7988B8F8742
:1027700081E063E040E00E949A0C8D8D0E94631519
:1027800081E063E041E00E949A0C80E090E0A0E8E4
:10279000BFE38B879C87AD87BE876B857C858D85E6
:1027A0009E8520E030E04AE755E40E941F02DC01EC
:1027B000CB018F839887A987BA876F8178858985B0
:1027C0009A8520E030E040E85FE30E9425048823FA
:1027D0002CF481E090E09E838D833FC06F817885EB
:1027E00089859A8520E03FEF4FE757E40E94C503B3
:1027F00018164CF56B857C858D859E8520E030E034
:1028000040E251E40E941F02DC01CB01BC01CD017A
:102810000E944900DC01CB019E838D830FC080E9BB
:1028200091E09C838B838B819C810197F1F79C8342
:102830008B838D819E8101979E838D838D819E8167
:10284000009769F714C06F81788589859A850E9401
:102850004900DC01CB019E838D838D819E819A830B
:10286000898389819A810197F1F79A83898381E02D
:1028700063E040E00E949A0C6D960FB6F894DEBFBC
:102880000FBECDBFCF91DF910895DF93CF93CDB72A
:10289000DEB76D970FB6F894DEBF0FBECDBF8D8F3C
:1028A00081E061E041E00E949A0C81E062E040E05A
:1028B0000E949A0C8D8D82958F700E94631581E025
:1028C00063E041E00E949A0C80E090E0A0E8BFE362
:1028D000898F9A8FAB8FBC8F698D7A8D8B8D9C8DF4
:1028E00020E030E04AE755E40E941F02DC01CB0102
:1028F0008D8B9E8BAF8BB88F6D897E898F89988DDC
:1029000020E030E040E85FE30E94250488232CF4B7
:1029100081E090E09C8B8B8B3FC06D897E898F8995
:10292000988D20E03FEF4FE757E40E94C50318164B
:102930004CF5698D7A8D8B8D9C8D20E030E040E2E6
:1029400051E40E941F02DC01CB01BC01CD010E94B9
:102950004900DC01CB019C8B8B8B0FC080E991E09F
:102960009A8B898B89899A890197F1F79A8B898B40
:102970008B899C8901979C8B8B8B8B899C89009779
:1029800069F714C06D897E898F89988D0E944900EE
:10299000DC01CB019C8B8B8B8B899C89988B8F87DF
:1029A0008F8598890197F1F7988B8F8781E063E095
:1029B00040E00E949A0C8D8D0E94631581E063E0D7
:1029C00041E00E949A0C80E090E0A0E8BFE38B8792
:1029D0009C87AD87BE876B857C858D859E8520E035
:1029E00030E04AE755E40E941F02DC01CB018F83EF
:1029F0009887A987BA876F81788589859A8520E02D
:102A000030E040E85FE30E94250488232CF481E055
:102A100090E09E838D833FC06F81788589859A85FC
:102A200020E03FEF4FE757E40E94C50318164CF52E
:102A30006B857C858D859E8520E030E040E251E409
:102A40000E941F02DC01CB01BC01CD010E944900A4
:102A5000DC01CB019E838D830FC080E991E09C83D4
:102A60008B838B819C810197F1F79C838B838D8174
:102A70009E8101979E838D838D819E81009769F74A
:102A800014C06F81788589859A850E944900DC0190
:102A9000CB019E838D838D819E819A8389838981D9
:102AA0009A810197F1F79A83898381E063E040E09E
:102AB0000E949A0C6D960FB6F894DEBF0FBECDBF84
:102AC000CF91DF910895DF93CF930F92CDB7DEB70B
:102AD00089838981982F917080E064E0492F0E945A
:102AE0009A0C89818695982F917080E065E0492F36
:102AF0000E949A0C898186958695982F917080E026
:102B000066E0492F0E949A0C898186958695869564
:102B1000982F917080E067E0492F0E949A0C0F90E7
:102B2000CF91DF910895DF93CF9300D00F92CDB76F
:102B3000DEB79B838A8319820EC08981282F30E0FB
:102B40008A819B81FC01E20FF31F80810E94451462
:102B500089818F5F89838981282F30E08A819B81D9
:102B6000FC01E20FF31F8081882339F70F900F904B
:102B70000F90CF91DF910895DF93CF93CDB7DEB75C
:102B80002E970FB6F894DEBF0FBECDBF81E00E9436
:102B9000271380E090E0A0E0B0E48B879C87AD87AE
:102BA000BE876B857C858D859E8520E030E04AE779
:102BB00055E40E941F02DC01CB018F839887A9870F
:102BC000BA876F81788589859A8520E030E040E872
:102BD0005FE30E94250488232CF481E090E09E832B
:102BE0008D833FC06F81788589859A8520E03FEF8E
:102BF0004FE757E40E94C50318164CF56B857C859A
:102C00008D859E8520E030E040E251E40E941F0265
:102C1000DC01CB01BC01CD010E944900DC01CB01EC
:102C20009E838D830FC080E991E09C838B838B8191
:102C30009C810197F1F79C838B838D819E81019705
:102C40009E838D838D819E81009769F714C06F816B
:102C5000788589859A850E944900DC01CB019E8395
:102C60008D838D819E819A83898389819A81019741
:102C7000F1F79A8389832E960FB6F894DEBF0FBEC4
:102C8000CDBFCF91DF9108950F931F93DF93CF9323
:102C9000CDB7DEB7CD54D0400FB6F894DEBF0FBE2F
:102CA000CDBFFE01E45BFF4F8083FE01E35BFF4F7E
:102CB0006083FE01E45BFF4F8081813009F0F9C041
:102CC000FE01E55BFF4F1082E9C084E10E942713FB
:102CD000FE01EB5BFF4F80E090E0ACE1B2E480836B
:102CE0009183A283B3838E010F5B1F4FFE01EB5BC9
:102CF000FF4F60817181828193812BEA3AEA4AEA2F
:102D000050E40E941F02DC01CB01F8018083918313
:102D1000A283B383FE01EF5BFF4F608171818281EB
:102D2000938120E030E040E85FE30E94250488239F
:102D300034F481E0FE01E05CFF4F80839DC0FE0122
:102D4000EF5BFF4F608171818281938120E030E0F1
:102D50004FE753E40E94C50318160CF07EC0FE0135
:102D6000EB5BFF4F608171818281938120E030E0D5
:102D70004AE754E40E941903DC01CB018CAF9DAFFC
:102D8000AEAFBFAF6CAD7DAD8EAD9FAD20E030E09E
:102D90004AE755E40E941F02DC01CB0188AF99AFDE
:102DA000AAAFBBAF68AD79AD8AAD9BAD20E030E096
:102DB00040E85FE30E94250488232CF481E090E042
:102DC0009FAB8EAB3FC068AD79AD8AAD9BAD20E0C7
:102DD0003FEF4FE757E40E94C50318164CF56CAD62
:102DE0007DAD8EAD9FAD20E030E040E251E40E9429
:102DF0001F02DC01CB01BC01CD010E944900DC01B6
:102E0000CB019FAB8EAB0FC080E991E09DAB8CAB4B
:102E10008CA99DA90197F1F79DAB8CAB8EA99FA9B9
:102E200001979FAB8EAB8EA99FA9009769F72DC024
:102E300068AD79AD8AAD9BAD0E944900DC01CB0144
:102E40009FAB8EAB8EA99FA99BAB8AAB8AA99BA98E
:102E50000197F1F79BAB8AAB18C0FE01EF5BFF4F08
:102E600060817181828193810E944900DC01CB01E4
:102E7000FE01E05CFF4F8083FE01E05CFF4F80813C
:102E800089AB89A98A95F1F789ABDE01A55BBF4FB4
:102E9000FE01E55BFF4F80818F5F8C93FE01E55B58
:102EA000FF4FDE01A35BBF4F90818C91981708F410
:102EB0000CCFFE01E45BFF4F8081823009F0B0C18E
:102EC000FE01E65BFF4F1082CAC084E10E94271317
:102ED00080E090E0ACE1B2E48DA79EA7AFA7B8ABCD
:102EE0006DA57EA58FA598A92BEA3AEA4AEA50E497
:102EF0000E941F02DC01CB0189A79AA7ABA7BCA740
:102F000069A57AA58BA59CA520E030E040E85FE3A9
:102F10000E94250488231CF481E088A791C069A53C
:102F20007AA58BA59CA520E030E04FE753E40E94F2
:102F3000C50318160CF07BC06DA57EA58FA598A9BA
:102F400020E030E04AE754E40E941903DC01CB01A1
:102F50008CA39DA3AEA3BFA36CA17DA18EA19FA1B5
:102F600020E030E04AE755E40E941F02DC01CB017B
:102F700088A399A3AAA3BBA368A179A18AA19BA1B5
:102F800020E030E040E85FE30E94250488232CF431
:102F900081E090E09F8F8E8F3FC068A179A18AA1C8
:102FA0009BA120E03FEF4FE757E40E94C5031816AE
:102FB0004CF56CA17DA18EA19FA120E030E040E204
:102FC00051E40E941F02DC01CB01BC01CD010E9433
:102FD0004900DC01CB019F8F8E8F0FC080E991E00B
:102FE0009D8F8C8F8C8D9D8D0197F1F79D8F8C8F90
:102FF0008E8D9F8D01979F8F8E8F8E8D9F8D0097C9
:1030000069F724C068A179A18AA19BA10E94490007
:10301000DC01CB019F8F8E8F8E8D9F8D9B8F8A8F32
:103020008A8D9B8D0197F1F79B8F8A8F0FC069A5C1
:103030007AA58BA59CA50E944900DC01CB0188A73D
:1030400088A5898F898D8A95F1F7898FDE01A65B26
:10305000BF4FFE01E65BFF4F80818F5F8C93FE01C7
:10306000E65BFF4F8081883208F42FCFFE01E75BDB
:10307000FF4F1082CAC084E10E94271380E090E0D5
:10308000ACE1B2E48D8B9E8BAF8BB88F6D897E895E
:103090008F89988D2BEA3AEA4AEA50E40E941F028F
:1030A000DC01CB01898B9A8BAB8BBC8B69897A89CC
:1030B0008B899C8920E030E040E85FE30E94250492
:1030C00088231CF481E0888B91C069897A898B8977
:1030D0009C8920E030E04FE753E40E94C5031816B6
:1030E0000CF07BC06D897E898F89988D20E030E05F
:1030F0004AE754E40E941903DC01CB018C879D87C9
:10310000AE87BF876C857D858E859F8520E030E00A
:103110004AE755E40E941F02DC01CB0188879987AA
:10312000AA87BB87688579858A859B8520E030E002
:1031300040E85FE30E94250488232CF481E090E0BE
:103140009F838E833FC0688579858A859B8520E033
:103150003FEF4FE757E40E94C50318164CF56C8506
:103160007D858E859F8520E030E040E251E40E941D
:103170001F02DC01CB01BC01CD010E944900DC0132
:10318000CB019F838E830FC080E991E09D838C8368
:103190008C819D810197F1F79D838C838E819F8126
:1031A00001979F838E838E819F81009769F724C04A
:1031B000688579858A859B850E944900DC01CB0161
:1031C0009F838E838E819F819B838A838A819B814B
:1031D0000197F1F79B838A830FC069897A898B896C
:1031E0009C890E944900DC01CB01888B88898983F6
:1031F00089818A95F1F78983DE01A75BBF4FFE01C4
:10320000E75BFF4F80818F5F8C93FE01E75BFF4F91
:10321000DE01A35BBF4F90818C91981708F42BCFF0
:10322000C35BDF4F0FB6F894DEBF0FBECDBFCF91AB
:10323000DF911F910F910895DF93CF93CDB7DEB744
:10324000E1970FB6F894DEBF0FBECDBF89AB89A959
:10325000813009F0C1C08CE10E94271380E090E02A
:10326000A0E2B2E48DA79EA7AFA7B8AB6DA57EA5DF
:103270008FA598A92BEA3AEA4AEA50E40E941F0275
:10328000DC01CB0189A79AA7ABA7BCA769A57AA542
:103290008BA59CA520E030E040E85FE30E94250478
:1032A00088231CF481E088A791C069A57AA58BA525
:1032B0009CA520E030E04FE753E40E94C5031816B8
:1032C0000CF07BC06DA57EA58FA598A920E030E00D
:1032D0004AE754E40E941903DC01CB018CA39DA3AF
:1032E000AEA3BFA36CA17DA18EA19FA120E030E081
:1032F0004AE755E40E941F02DC01CB0188A399A391
:10330000AAA3BBA368A179A18AA19BA120E030E078
:1033100040E85FE30E94250488232CF481E090E0DC
:103320009F8F8E8F3FC068A179A18AA19BA120E0C9
:103330003FEF4FE757E40E94C50318164CF56CA108
:103340007DA18EA19FA120E030E040E251E40E94E7
:103350001F02DC01CB01BC01CD010E944900DC0150
:10336000CB019F8F8E8F0FC080E991E09D8F8C8F56
:103370008C8D9D8D0197F1F79D8F8C8F8E8D9F8DFC
:1033800001979F8F8E8F8E8D9F8D009769F724C038
:1033900068A179A18AA19BA10E944900DC01CB010F
:1033A0009F8F8E8F8E8D9F8D9B8F8A8F8A8D9B8D09
:1033B0000197F1F79B8F8A8F0FC069A57AA58BA51E
:1033C0009CA50E944900DC01CB0188A788A5898FB4
:1033D000898D8A95F1F7898F89A9882309F0C1C061
:1033E00088E10E94271380E090E0A0E2B2E48D8B98
:1033F0009E8BAF8BB88F6D897E898F89988D2BEAD4
:103400003AEA4AEA50E40E941F02DC01CB01898BB0
:103410009A8BAB8BBC8B69897A898B899C8920E0DC
:1034200030E040E85FE30E94250488231CF481E03B
:10343000888B91C069897A898B899C8920E030E0EA
:103440004FE753E40E94C50318160CF07BC06D894A
:103450007E898F89988D20E030E04AE754E40E940D
:103460001903DC01CB018C879D87AE87BF876C85F4
:103470007D858E859F8520E030E04AE755E40E94F7
:103480001F02DC01CB0188879987AA87BB876885E3
:1034900079858A859B8520E030E040E85FE30E94E3
:1034A000250488232CF481E090E09F838E833FC025
:1034B000688579858A859B8520E03FEF4FE757E453
:1034C0000E94C50318164CF56C857D858E859F85F9
:1034D00020E030E040E251E40E941F02DC01CB0119
:1034E000BC01CD010E944900DC01CB019F838E838A
:1034F0000FC080E991E09D838C838C819D81019731
:10350000F1F79D838C838E819F8101979F838E83AA
:103510008E819F81009769F724C0688579858A85A7
:103520009B850E944900DC01CB019F838E838E81A5
:103530009F819B838A838A819B810197F1F79B837B
:103540008A830FC069897A898B899C890E94490086
:10355000DC01CB01888B8889898389818A95F1F781
:103560008983E1960FB6F894DEBF0FBECDBFCF9131
:10357000DF910895DF93CF93CDB7DEB783E065E0A9
:1035800041E00E94740BCF91DF910895DF93CF93B8
:10359000CDB7DEB76D970FB6F894DEBF0FBECDBFC7
:1035A0008D8F8D8D882311F481E08D8F8D8D882FE7
:1035B00090E0A0E0B0E0BC01CD010E94D904DC01A4
:1035C000CB01BC01CD0120E030E44CE754E40E9483
:1035D0001F02DC01CB01BC01CD0120E030E048E45A
:1035E00052E40E941903DC01CB01898F9A8FAB8FC3
:1035F000BC8F83E065E041E00E949A0C898D9A8D32
:10360000AB8DBC8D8D8B9E8BAF8BB88F6D897E897A
:103610008F89988D2BEA3AEA4AEA50E40E941F0209
:10362000DC01CB01898B9A8BAB8BBC8B69897A8946
:103630008B899C8920E030E040E85FE30E9425040C
:1036400088231CF481E0888B91C069897A898B89F1
:103650009C8920E030E04FE753E40E94C503181630
:103660000CF07BC06D897E898F89988D20E030E0D9
:103670004AE754E40E941903DC01CB018C879D8743
:10368000AE87BF876C857D858E859F8520E030E085
:103690004AE755E40E941F02DC01CB018887998725
:1036A000AA87BB87688579858A859B8520E030E07D
:1036B00040E85FE30E94250488232CF481E090E039
:1036C0009F838E833FC0688579858A859B8520E0AE
:1036D0003FEF4FE757E40E94C50318164CF56C8581
:1036E0007D858E859F8520E030E040E251E40E9498
:1036F0001F02DC01CB01BC01CD010E944900DC01AD
:10370000CB019F838E830FC080E991E09D838C83E2
:103710008C819D810197F1F79D838C838E819F81A0
:1037200001979F838E838E819F81009769F724C0C4
:10373000688579858A859B850E944900DC01CB01DB
:103740009F838E838E819F819B838A838A819B81C5
:103750000197F1F79B838A830FC069897A898B89E6
:103760009C890E944900DC01CB01888B8889898370
:1037700089818A95F1F7898383E065E040E00E94C2
:103780009A0C6D960FB6F894DEBF0FBECDBFCF91E9
:10379000DF910895DF93CF93CDB7DEB783E065E087
:1037A00040E00E949A0CCF91DF910895DF93CF9370
:1037B00000D00F92CDB7DEB789838981282F30E002
:1037C0003B832A838A819B81009739F12A813B813F
:1037D0002130310509F04BC0AEE4B0E0EEE4F0E09A
:1037E00080818F7E8C93AEE4B0E0EEE4F0E08081E7
:1037F000877F8C93AFE4B0E0EFE4F0E080818D7FD1
:103800008C93AFE4B0E0EFE4F0E080818E7F8C93A6
:10381000ECE4F0E0118210822AC0AEE4B0E0EEE405
:10382000F0E0808180618C93AEE4B0E0EEE4F0E003
:10383000808188608C93AFE4B0E0EFE4F0E08081B9
:1038400082608C93AFE4B0E0EFE4F0E080818E7FA3
:103850008C93AFE4B0E0EFE4F0E0808180688C937B
:10386000AFE4B0E0EFE4F0E080818F7B8C930F90C9
:103870000F900F90CF91DF910895DF93CF93CDB745
:10388000DEB7A9E5B0E0E9E5F0E0808191818460F0
:1038900011969C938E93A9E5B0E0E9E5F0E0808174
:1038A0009181806211969C938E93CF91DF910895C0
:1038B000DF93CF9300D00F92CDB7DEB78983898194
:1038C000282F30E03B832A838A819B81009731F047
:1038D0002A813B812130310549F00FC0AEE4B0E0D0
:1038E000EEE4F0E0808180648C9307C0AEE4B0E049
:1038F000EEE4F0E080818F7B8C930F900F900F901F
:10390000CF91DF910895DF93CF93CDB7DEB7A9E5CF
:10391000B0E0E9E5F0E0808191818F7D11969C9384
:103920008E93A9E5B0E0E9E5F0E0808191818B7F9D
:1039300011969C938E93CF91DF910895DF93CF934F
:1039400000D00F92CDB7DEB789838981282F30E070
:103950003B832A838A819B810097D9F02A813B810E
:103960002130310559F5AEE4B0E0EEE4F0E08081BD
:103970008B7F8C93AEE4B0E0EEE4F0E080818D7F4D
:103980008C93AEE4B0E0EEE4F0E0808181608C9353
:1039900015C0AEE4B0E0EEE4F0E080818B7F8C9364
:1039A000AEE4B0E0EEE4F0E0808182608C93AEE4BF
:1039B000B0E0EEE4F0E0808181608C930F900F9096
:1039C0000F90CF91DF910895DF93CF9300D0CDB7C3
:1039D000DEB79A838983EAE4F0E089819A81918352
:1039E00080830F900F90CF91DF9108950F931F93D5
:1039F000DF93CF9300D000D000D0CDB7DEB79A834D
:103A000089834B835C836D837E836B817C818D8115
:103A10009E8120E030E048EC52E40E9455041816E4
:103A20000CF44CC006E410E089819A819C0140E0CE
:103A300050E080E990EDA3E0B0E0BC01CD010E9430
:103A4000B921DA01C9010197F801918380830AE461
:103A500010E0E6E4F0E0808191810196CC01A0E0E5
:103A6000B0E0BC01CD010E94D904DC01CB01BC0156
:103A7000CD012B813C814D815E810E941F02DC01C2
:103A8000CB01BC01CD0120E030E048EC52E40E94C3
:103A90001903DC01CB01BC01CD0120E030E040E89E
:103AA0005FE30E94C101DC01CB01BC01CD010E949A
:103AB0004900DC01CB01F8019183808326960FB683
:103AC000F894DEBF0FBECDBFCF91DF911F910F9154
:103AD0000895DF93CF93CDB7DEB7AEE4B0E0EEE468
:103AE000F0E080818B7F8C93AEE4B0E0EEE4F0E018
:103AF00080818D7F8C93AEE4B0E0EEE4F0E08081D5
:103B00008E7F8C93CF91DF910895DF93CF93CDB7C4
:103B1000DEB783E061E041E00E94740B83E066E081
:103B200040E00E94740B0E94690F81E00E94D61B46
:103B30000E943D1C80E00E94581C81E00E949E1C57
:103B40000E945B0FCF91DF910895DF93CF93CDB7A4
:103B5000DEB760970FB6F894DEBF0FBECDBF988B6F
:103B60008F8783E061E041E00E949A0C80E090E062
:103B7000A0E2B1E48B879C87AD87BE876B857C858F
:103B80008D859E8520E030E04AE755E40E941F02C3
:103B9000DC01CB018F839887A987BA876F817885ED
:103BA00089859A8520E030E040E85FE30E942504A3
:103BB00088232CF481E090E09E838D833FC06F8149
:103BC000788589859A8520E03FEF4FE757E40E948A
:103BD000C50318164CF56B857C858D859E8520E088
:103BE00030E040E251E40E941F02DC01CB01BC0145
:103BF000CD010E944900DC01CB019E838D830FC063
:103C000080E991E09C838B838B819C810197F1F704
:103C10009C838B838D819E8101979E838D838D8173
:103C20009E81009769F714C06F81788589859A8590
:103C30000E944900DC01CB019E838D838D819E8192
:103C40009A83898389819A810197F1F79A8389837D
:103C500083E061E040E00E949A0C80918201823012
:103C600009F071C01092820180918D0190918E01B6
:103C7000CC01A0E0B0E0DC01992788279C0180916D
:103C8000890190918A01280F391F809187019091B5
:103C90008801A901481B590BCA01909386018093A2
:103CA00085018091850190918601CC01A0E0B0E072
:103CB000BC01CD010E94D904DC01CB01BC01CD01C6
:103CC0002DEC3CE349E654E40E941903DC01CB01EE
:103CD000BC01CD010E944900DC01CB01909384011D
:103CE00080938301809183019091840182309105BA
:103CF00080F080918301909184018135910548F491
:103D00008091830190918401EF85F889918380836C
:103D10000DC080918301909184018B35910530F025
:103D2000EF85F88984E690E09183808310928E017C
:103D300010928D0110928C0110928B010E943D1CFB
:103D400080E00E94581C60960FB6F894DEBF0FBE4C
:103D5000CDBFCF91DF910895DF93CF93CDB7DEB77D
:103D60000E94691DCF91DF9108951F920F920FB6A7
:103D70000F9211248F939F93DF93CF93CDB7DEB72C
:103D800080918B0190918C01019690938C0180938E
:103D90008B01CF91DF919F918F910F900FBE0F906C
:103DA0001F9018951F920F920FB60F9211242F9308
:103DB0003F934F935F936F937F938F939F93AF93B3
:103DC000BF93EF93FF93DF93CF93CDB7DEB780918F
:103DD0008201882381F4E6E4F0E080819181909370
:103DE00088018093870181E00E94581C10928C0109
:103DF00010928B0116C080918201813091F4E6E42B
:103E0000F0E08081918190938A0180938901809173
:103E10008B0190918C0190938E0180938D010E9473
:103E2000831C809182018F5F80938201CF91DF910B
:103E3000FF91EF91BF91AF919F918F917F916F9182
:103E40005F914F913F912F910F900FBE0F901F9058
:103E50001895DF93CF93CDB7DEB70E94BA1A0E94B0
:103E6000851D0E94770F02C00E94691F80919901F1
:103E70008823D1F31092990102C00E9402218091FF
:103E80009A018823D1F310929A011CC08FE891E027
:103E90000E94A51D80918F01909190018B3091051A
:103EA00058F40E94BC1580E690E00E9493150E9491
:103EB000840981E080939B0180919B01882311F408
:103EC0000E94642180919B01882301F310929B0141
:103ED000CDCFDF93CF93CDB7DEB7AA970FB6F894C7
:103EE000DEBF0FBECDBF87E30E94C61A04C081E9C2
:103EF00091E00E94A51D80919101909192010097FF
:103F0000B1F380E090E0AAE7B4E48FA398A7A9A753
:103F1000BAA76FA178A589A59AA520E030E04AE765
:103F200055E40E941F02DC01CB018BA39CA3ADA32F
:103F3000BEA36BA17CA18DA19EA120E030E040E852
:103F40005FE30E94250488232CF481E090E09AA38B
:103F500089A33FC06BA17CA18DA19EA120E03FEF72
:103F60004FE757E40E94C50318164CF56FA178A5DA
:103F700089A59AA520E030E040E251E40E941F02AA
:103F8000DC01CB01BC01CD010E944900DC01CB0169
:103F90009AA389A30FC080E991E098A38F8F8F8D9A
:103FA00098A10197F1F798A38F8F89A19AA1019702
:103FB0009AA389A389A19AA1009769F714C06BA15C
:103FC0007CA18DA19EA10E944900DC01CB019AA396
:103FD00089A389A19AA19E8F8D8F8D8D9E8D01972A
:103FE000F1F79E8F8D8F85E00E94C61A04C083E989
:103FF00091E00E94A51D80919301909194010097FA
:10400000B1F380E090E0AAE7B4E4898F9A8FAB8F98
:10401000BC8F698D7A8D8B8D9C8D20E030E04AE7D6
:1040200055E40E941F02DC01CB018D8B9E8BAF8B70
:10403000B88F6D897E898F89988D20E030E040E8C7
:104040005FE30E94250488232CF481E090E09C8BA0
:104050008B8B3FC06D897E898F89988D20E03FEFE3
:104060004FE757E40E94C50318164CF5698D7A8D09
:104070008B8D9C8D20E030E040E251E40E941F02D5
:10408000DC01CB01BC01CD010E944900DC01CB0168
:104090009C8B8B8B0FC080E991E09A8B898B8989EF
:1040A0009A890197F1F79A8B898B8B899C89019763
:1040B0009C8B8B8B8B899C89009769F714C06D89C9
:1040C0007E898F89988D0E944900DC01CB019C8BF1
:1040D0008B8B8B899C89988B8F878F85988901978B
:1040E000F1F7988B8F8789E60E94C61A04C085E98C
:1040F00091E00E94A51D80919501909196010097F5
:10410000B1F380E090E0AAE7B4E48B879C87AD87A9
:10411000BE876B857C858D859E8520E030E04AE7F3
:1041200055E40E941F02DC01CB018F839887A98789
:10413000BA876F81788589859A8520E030E040E8EC
:104140005FE30E94250488232CF481E090E09E83A5
:104150008D833FC06F81788589859A8520E03FEF08
:104160004FE757E40E94C50318164CF56B857C8514
:104170008D859E8520E030E040E251E40E941F02E0
:10418000DC01CB01BC01CD010E944900DC01CB0167
:104190009E838D830FC080E991E09C838B838B810C
:1041A0009C810197F1F79C838B838D819E81019780
:1041B0009E838D838D819E81009769F714C06F81E6
:1041C000788589859A850E944900DC01CB019E8310
:1041D0008D838D819E819A83898389819A810197BC
:1041E000F1F79A83898387E30E94C61A81E080935E
:1041F0009901AA960FB6F894DEBF0FBECDBFCF913E
:10420000DF910895DF93CF93CDB7DEB72091910171
:104210003091920180919301909194012817390770
:10422000D0F020919101309192018091950190916F
:1042300096012817390778F083E590E090939D0167
:1042400080939C01809191019091920190939801AB
:104250008093970133C02091930130919401809114
:1042600091019091920128173907D0F02091930184
:10427000309194018091950190919601281739070A
:1042800078F082E590E090939D0180939C0180916D
:1042900093019091940190939801809397010EC09F
:1042A0008CE490E090939D0180939C018091950116
:1042B00090919601909398018093970181E080936B
:1042C0009A01CF91DF910895DF93CF9300D0CDB7BE
:1042D000DEB780919C0190919D019A8389838981A9
:1042E0009A8182359105A9F089819A81833591055A
:1042F00031F089819A818C349105B9F021C00E94F6
:10430000BC1585E690E00E94931581E00E94DA08D2
:1043100017C00E94BC158EE690E00E9493150E9483
:10432000C70981E00E94DA080BC00E94BC1584E72F
:1043300090E00E9493150E94560A81E00E94DA08DC
:1043400010929D0110929C01109292011092910185
:10435000109294011092930110929601109295017F
:1043600010929801109297010F900F90CF91DF91CA
:104370000895A1E21A2EAA1BBB1BFD010DC0AA1FA6
:10438000BB1FEE1FFF1FA217B307E407F50720F0BE
:10439000A21BB30BE40BF50B661F771F881F991F39
:1043A0001A9469F760957095809590959B01AC0182
:1043B000BD01CF0108952F923F924F925F926F926D
:1043C0007F928F929F92AF92BF92CF92DF92EF92A5
:1043D000FF920F931F93CF93DF93CDB7DEB7CA1B26
:1043E000DB0B0FB6F894DEBF0FBECDBF09942A8851
:1043F000398848885F846E847D848C849B84AA84F9
:10440000B984C884DF80EE80FD800C811B81AA8185
:10441000B981CE0FD11D0FB6F894DEBF0FBECDBF50
:08442000ED010895F894FFCFAF
:1044280053544F500053747261696768740052693D
:10443800676874004C6566740000000000000000A6
:104448000000010202030303030404040404040437
:104458000405050505050505050505050505050505
:1044680005060606060606060606060606060606E5
:1044780006060606060606060606060606060606D4
:1044880006070707070707070707070707070707B5
:1044980007070707070707070707070707070707A4
:1044A8000707070707070707070707070707070794
:1044B8000707070707070707070707070707070784
:1044C8000708080808080808080808080808080865
:1044D8000808080808080808080808080808080854
:1044E8000808080808080808080808080808080844
:1044F8000808080808080808080808080808080834
:104508000808080808080808080808080808080823
:104518000808080808080808080808080808080813
:104528000808080808080808080808080808080803
:1045380008080808080808080808080808080808F3
:02454800080069
:00000001FF
